{
  "transactions": [
    {
      "hash": "0x55292dfab8205db4d91917e1830a06d1765932d9d61e4ae879586007d37b27a9",
      "transactionType": "CREATE",
      "contractName": "A",
      "contractAddress": "0xde92aaa7e6f83f65d28e861db42b06bbf6360440",
      "function": null,
      "arguments": null,
      "transaction": {
        "from": "0x3a81e9bab5e931079ad42fe08962b86eebb6814b",
        "gas": "0x7ed42",
        "value": "0x0",
        "input": "0x6080604052348015600e575f5ffd5b506106458061001c5f395ff3fe608060405260043610610058575f3560e01c80633ab6ee76146100635780633fa4f2451461007f5780634e70b1dc146100a957806367e404ce146100d3578063813d8a37146100fd578063b6b204ef146101275761005f565b3661005f57005b5f5ffd5b61007d60048036038101906100789190610479565b610143565b005b34801561008a575f5ffd5b50610093610278565b6040516100a091906104c6565b60405180910390f35b3480156100b4575f5ffd5b506100bd61027e565b6040516100ca91906104c6565b60405180910390f35b3480156100de575f5ffd5b506100e7610283565b6040516100f491906104ee565b60405180910390f35b348015610108575f5ffd5b506101116102a8565b60405161011e91906104c6565b60405180910390f35b610141600480360381019061013c9190610479565b6102b0565b005b5f5f8373ffffffffffffffffffffffffffffffffffffffff168360405160240161016d91906104c6565b6040516020818303038152906040527f6466414b000000000000000000000000000000000000000000000000000000007bffffffffffffffffffffffffffffffffffffffffffffffffffffffff19166020820180517bffffffffffffffffffffffffffffffffffffffffffffffffffffffff83818316178352505050506040516101f79190610559565b5f60405180830381855af49150503d805f811461022f576040519150601f19603f3d011682016040523d82523d5f602084013e610234565b606091505b50915091507feb722aaf67d16afec3e425ae40d374a902cdbbb44c722ce4fd485a6540d6a7e1828260405161026a9291906105e1565b60405180910390a150505050565b60025481565b5f5481565b60015f9054906101000a900473ffffffffffffffffffffffffffffffffffffffff1681565b5f5f54905090565b5f5f8373ffffffffffffffffffffffffffffffffffffffff1634846040516024016102db91906104c6565b6040516020818303038152906040527f6466414b000000000000000000000000000000000000000000000000000000007bffffffffffffffffffffffffffffffffffffffffffffffffffffffff19166020820180517bffffffffffffffffffffffffffffffffffffffffffffffffffffffff83818316178352505050506040516103659190610559565b5f6040518083038185875af1925050503d805f811461039f576040519150601f19603f3d011682016040523d82523d5f602084013e6103a4565b606091505b50915091507f44e3cf9e51641c5558d314f28ac4c132729820f14e658ce00c4391571fdf7c6e82826040516103da9291906105e1565b60405180910390a150505050565b5f5ffd5b5f73ffffffffffffffffffffffffffffffffffffffff82169050919050565b5f610415826103ec565b9050919050565b6104258161040b565b811461042f575f5ffd5b50565b5f813590506104408161041c565b92915050565b5f819050919050565b61045881610446565b8114610462575f5ffd5b50565b5f813590506104738161044f565b92915050565b5f5f6040838503121561048f5761048e6103e8565b5b5f61049c85828601610432565b92505060206104ad85828601610465565b9150509250929050565b6104c081610446565b82525050565b5f6020820190506104d95f8301846104b7565b92915050565b6104e88161040b565b82525050565b5f6020820190506105015f8301846104df565b92915050565b5f81519050919050565b5f81905092915050565b8281835e5f83830152505050565b5f61053382610507565b61053d8185610511565b935061054d81856020860161051b565b80840191505092915050565b5f6105648284610529565b915081905092915050565b5f8115159050919050565b6105838161056f565b82525050565b5f82825260208201905092915050565b5f601f19601f8301169050919050565b5f6105b382610507565b6105bd8185610589565b93506105cd81856020860161051b565b6105d681610599565b840191505092915050565b5f6040820190506105f45f83018561057a565b818103602083015261060681846105a9565b9050939250505056fea264697066735822122034e3df3e60d8898491992404c599c797587c15f939f9e946ec06dee9b5df466564736f6c634300081e0033",
        "nonce": "0x13",
        "chainId": "0xaa36a7"
      },
      "additionalContracts": [],
      "isFixedGasLimit": false
    },
    {
      "hash": "0x518373ce4ff105f38cf549e2d7925692dc66ffc614a30152034ac77f32b3cfdb",
      "transactionType": "CREATE",
      "contractName": "B",
      "contractAddress": "0xb9435810d853a60dee2c9699e6f96564a0b89eab",
      "function": null,
      "arguments": null,
      "transaction": {
        "from": "0x3a81e9bab5e931079ad42fe08962b86eebb6814b",
        "gas": "0x402ca",
        "value": "0x0",
        "input": "0x6080604052348015600e575f5ffd5b506102b18061001c5f395ff3fe608060405260043610610049575f3560e01c80633fa4f2451461004d578063477a5c98146100775780634e70b1dc146100a15780636466414b146100cb57806367e404ce146100e7575b5f5ffd5b348015610058575f5ffd5b50610061610111565b60405161006e91906101b1565b60405180910390f35b348015610082575f5ffd5b5061008b610117565b60405161009891906101b1565b60405180910390f35b3480156100ac575f5ffd5b506100b561011f565b6040516100c291906101b1565b60405180910390f35b6100e560048036038101906100e091906101f8565b610124565b005b3480156100f2575f5ffd5b506100fb610174565b6040516101089190610262565b60405180910390f35b60025481565b5f5f54905090565b5f5481565b805f819055503360015f6101000a81548173ffffffffffffffffffffffffffffffffffffffff021916908373ffffffffffffffffffffffffffffffffffffffff1602179055503460028190555050565b60015f9054906101000a900473ffffffffffffffffffffffffffffffffffffffff1681565b5f819050919050565b6101ab81610199565b82525050565b5f6020820190506101c45f8301846101a2565b92915050565b5f5ffd5b6101d781610199565b81146101e1575f5ffd5b50565b5f813590506101f2816101ce565b92915050565b5f6020828403121561020d5761020c6101ca565b5b5f61021a848285016101e4565b91505092915050565b5f73ffffffffffffffffffffffffffffffffffffffff82169050919050565b5f61024c82610223565b9050919050565b61025c81610242565b82525050565b5f6020820190506102755f830184610253565b9291505056fea2646970667358221220492839d74347b805e56ad0f13c6e0c3889b72dcabffbb64e5cec15d1107eb85064736f6c634300081e0033",
        "nonce": "0x14",
        "chainId": "0xaa36a7"
      },
      "additionalContracts": [],
      "isFixedGasLimit": false
    },
    {
      "hash": "0x2d342cbe794497f15665daebd49a6e4ac4834e90bfb8611ee8c83c58da512037",
      "transactionType": "CALL",
      "contractName": null,
      "contractAddress": "0xde92aaa7e6f83f65d28e861db42b06bbf6360440",
      "function": null,
      "arguments": null,
      "transaction": {
        "from": "0x3a81e9bab5e931079ad42fe08962b86eebb6814b",
        "to": "0xde92aaa7e6f83f65d28e861db42b06bbf6360440",
        "gas": "0x7199",
        "value": "0xb1a2bc2ec50000",
        "input": "0x",
        "nonce": "0x15",
        "chainId": "0xaa36a7"
      },
      "additionalContracts": [],
      "isFixedGasLimit": false
    },
    {
      "hash": "0xc0a766aeaf716427b8c88459b771e1b3aab32c859d27bd98cd0db79fd4b73c60",
      "transactionType": "CALL",
      "contractName": "A",
      "contractAddress": "0xde92aaa7e6f83f65d28e861db42b06bbf6360440",
      "function": "setVarsCall(address,uint256)",
      "arguments": [
        "0xb9435810D853A60dee2C9699E6F96564A0B89eab",
        "42"
      ],
      "transaction": {
        "from": "0x3a81e9bab5e931079ad42fe08962b86eebb6814b",
        "to": "0xde92aaa7e6f83f65d28e861db42b06bbf6360440",
        "gas": "0x2216b",
        "value": "0x2386f26fc10000",
        "input": "0xb6b204ef000000000000000000000000b9435810d853a60dee2c9699e6f96564a0b89eab000000000000000000000000000000000000000000000000000000000000002a",
        "nonce": "0x16",
        "chainId": "0xaa36a7"
      },
      "additionalContracts": [],
      "isFixedGasLimit": false
    },
    {
      "hash": "0x164e98a3108e0259ab40b0b0a720bceb3e2197c3a14fc70a4b0cd526d1a1ee0c",
      "transactionType": "CALL",
      "contractName": "A",
      "contractAddress": "0xde92aaa7e6f83f65d28e861db42b06bbf6360440",
      "function": "setVarsDelegateCall(address,uint256)",
      "arguments": [
        "0xb9435810D853A60dee2C9699E6F96564A0B89eab",
        "123"
      ],
      "transaction": {
        "from": "0x3a81e9bab5e931079ad42fe08962b86eebb6814b",
        "to": "0xde92aaa7e6f83f65d28e861db42b06bbf6360440",
        "gas": "0x1fca2",
        "value": "0x2386f26fc10000",
        "input": "0x3ab6ee76000000000000000000000000b9435810d853a60dee2c9699e6f96564a0b89eab000000000000000000000000000000000000000000000000000000000000007b",
        "nonce": "0x17",
        "chainId": "0xaa36a7"
      },
      "additionalContracts": [],
      "isFixedGasLimit": false
    }
  ],
  "receipts": [
    {
      "status": "0x1",
      "cumulativeGasUsed": "0xe2a108",
      "logs": [],
      "logsBloom": "0x00000000000000000000000000000000000000000000000000000000000000000000000000000000000000000000000000000000000000000000000000000000000000000000000000000000000000000000000000000000000000000000000000000000000000000000000000000000000000000000000000000000000000000000000000000000000000000000000000000000000000000000000000000000000000000000000000000000000000000000000000000000000000000000000000000000000000000000000000000000000000000000000000000000000000000000000000000000000000000000000000000000000000000000000000000000",
      "type": "0x2",
      "transactionHash": "0x55292dfab8205db4d91917e1830a06d1765932d9d61e4ae879586007d37b27a9",
      "transactionIndex": "0x84",
      "blockHash": "0x9345cd697aa4619906b96130133d4b0ed5d32f01dd6d318939e04777c35103fe",
      "blockNumber": "0x83c163",
      "gasUsed": "0x618f8",
      "effectiveGasPrice": "0x1df175",
      "from": "0x3a81e9bab5e931079ad42fe08962b86eebb6814b",
      "to": null,
      "contractAddress": "0xde92aaa7e6f83f65d28e861db42b06bbf6360440"
    },
    {
      "status": "0x1",
      "cumulativeGasUsed": "0xe5b6df",
      "logs": [],
      "logsBloom": "0x00000000000000000000000000000000000000000000000000000000000000000000000000000000000000000000000000000000000000000000000000000000000000000000000000000000000000000000000000000000000000000000000000000000000000000000000000000000000000000000000000000000000000000000000000000000000000000000000000000000000000000000000000000000000000000000000000000000000000000000000000000000000000000000000000000000000000000000000000000000000000000000000000000000000000000000000000000000000000000000000000000000000000000000000000000000",
      "type": "0x2",
      "transactionHash": "0x518373ce4ff105f38cf549e2d7925692dc66ffc614a30152034ac77f32b3cfdb",
      "transactionIndex": "0x85",
      "blockHash": "0x9345cd697aa4619906b96130133d4b0ed5d32f01dd6d318939e04777c35103fe",
      "blockNumber": "0x83c163",
      "gasUsed": "0x315d7",
      "effectiveGasPrice": "0x1df175",
      "from": "0x3a81e9bab5e931079ad42fe08962b86eebb6814b",
      "to": null,
      "contractAddress": "0xb9435810d853a60dee2c9699e6f96564a0b89eab"
    },
    {
      "status": "0x1",
      "cumulativeGasUsed": "0xe6091e",
      "logs": [],
      "logsBloom": "0x00000000000000000000000000000000000000000000000000000000000000000000000000000000000000000000000000000000000000000000000000000000000000000000000000000000000000000000000000000000000000000000000000000000000000000000000000000000000000000000000000000000000000000000000000000000000000000000000000000000000000000000000000000000000000000000000000000000000000000000000000000000000000000000000000000000000000000000000000000000000000000000000000000000000000000000000000000000000000000000000000000000000000000000000000000000",
      "type": "0x2",
      "transactionHash": "0x2d342cbe794497f15665daebd49a6e4ac4834e90bfb8611ee8c83c58da512037",
      "transactionIndex": "0x86",
      "blockHash": "0x9345cd697aa4619906b96130133d4b0ed5d32f01dd6d318939e04777c35103fe",
      "blockNumber": "0x83c163",
      "gasUsed": "0x523f",
      "effectiveGasPrice": "0x1df175",
      "from": "0x3a81e9bab5e931079ad42fe08962b86eebb6814b",
      "to": "0xde92aaa7e6f83f65d28e861db42b06bbf6360440",
      "contractAddress": null
    },
    {
      "status": "0x1",
      "cumulativeGasUsed": "0xe793fe",
      "logs": [
        {
          "address": "0xde92aaa7e6f83f65d28e861db42b06bbf6360440",
          "topics": [
            "0x44e3cf9e51641c5558d314f28ac4c132729820f14e658ce00c4391571fdf7c6e"
          ],
          "data": "0x000000000000000000000000000000000000000000000000000000000000000100000000000000000000000000000000000000000000000000000000000000400000000000000000000000000000000000000000000000000000000000000000",
          "blockHash": "0x9345cd697aa4619906b96130133d4b0ed5d32f01dd6d318939e04777c35103fe",
          "blockNumber": "0x83c163",
          "blockTimestamp": "0x685d8d94",
          "transactionHash": "0xc0a766aeaf716427b8c88459b771e1b3aab32c859d27bd98cd0db79fd4b73c60",
          "transactionIndex": "0x87",
          "logIndex": "0xcd",
          "removed": false
        }
      ],
      "logsBloom": "0x00000000000000000000000000000000000000000000000000000000000000000000000000400000000000000011000000000000000000000000000000000000000000000000000000000000000000000000000000000000000000000000000000000000000000000000000000000000000000000000000000000000000000000000000000000000000000000000000000000000000000000000000000000000000000000000000000000000000000000000000000000000000004000000000000000000000000000000000000000000000000000000000000000000000000000000000000000000000000000000000000000108000000000000000000000000",
      "type": "0x2",
      "transactionHash": "0xc0a766aeaf716427b8c88459b771e1b3aab32c859d27bd98cd0db79fd4b73c60",
      "transactionIndex": "0x87",
      "blockHash": "0x9345cd697aa4619906b96130133d4b0ed5d32f01dd6d318939e04777c35103fe",
      "blockNumber": "0x83c163",
      "gasUsed": "0x18ae0",
      "effectiveGasPrice": "0x1df175",
      "from": "0x3a81e9bab5e931079ad42fe08962b86eebb6814b",
      "to": "0xde92aaa7e6f83f65d28e861db42b06bbf6360440",
      "contractAddress": null
    },
    {
      "status": "0x1",
      "cumulativeGasUsed": "0xe9043d",
      "logs": [
        {
          "address": "0xde92aaa7e6f83f65d28e861db42b06bbf6360440",
          "topics": [
            "0xeb722aaf67d16afec3e425ae40d374a902cdbbb44c722ce4fd485a6540d6a7e1"
          ],
          "data": "0x000000000000000000000000000000000000000000000000000000000000000100000000000000000000000000000000000000000000000000000000000000400000000000000000000000000000000000000000000000000000000000000000",
          "blockHash": "0x9345cd697aa4619906b96130133d4b0ed5d32f01dd6d318939e04777c35103fe",
          "blockNumber": "0x83c163",
          "blockTimestamp": "0x685d8d94",
          "transactionHash": "0x164e98a3108e0259ab40b0b0a720bceb3e2197c3a14fc70a4b0cd526d1a1ee0c",
          "transactionIndex": "0x88",
          "logIndex": "0xce",
          "removed": false
        }
      ],
      "logsBloom": "0x00000004000000000000000000000000800000000000000000000000000000000000000000000000000000000010000000000000000000000000000000000000000000000000000000000000000000000000000000000000000000000000000000000000000000000000000000000000000010000000000000000000000000000000000000000000000000000000000000000000000000000000000000000000000000000000000000000000000000000000000000000000000004000000000000000000000000000000000000000000000000000000000000000000000000000000000000000000000000000000000000000008000000000000000000000000",
      "type": "0x2",
      "transactionHash": "0x164e98a3108e0259ab40b0b0a720bceb3e2197c3a14fc70a4b0cd526d1a1ee0c",
      "transactionIndex": "0x88",
      "blockHash": "0x9345cd697aa4619906b96130133d4b0ed5d32f01dd6d318939e04777c35103fe",
      "blockNumber": "0x83c163",
      "gasUsed": "0x1703f",
      "effectiveGasPrice": "0x1df175",
      "from": "0x3a81e9bab5e931079ad42fe08962b86eebb6814b",
      "to": "0xde92aaa7e6f83f65d28e861db42b06bbf6360440",
      "contractAddress": null
    }
  ],
  "libraries": [],
  "pending": [],
  "returns": {},
  "timestamp": 1750961557,
  "chain": 11155111,
  "commit": "26f3792"
}