{
  "transactions": [
    {
      "hash": "0xad5bf27ce49ea092f7b5c839b07dce060e0a037a8d09c5b04f77001eccc2fbd7",
      "transactionType": "CALL",
      "contractName": null,
      "contractAddress": "0x4dc6d3a20f0e99b1823cc681217209406957e445",
      "function": "setVarsDelegateCall(address,uint256)",
      "arguments": [
        "0x4Dc6d3A20F0E99B1823cC681217209406957e445",
        "45"
      ],
      "transaction": {
        "from": "0x3a81e9bab5e931079ad42fe08962b86eebb6814b",
        "to": "0x4dc6d3a20f0e99b1823cc681217209406957e445",
        "gas": "0x87bb",
        "value": "0x0",
        "input": "0x3ab6ee760000000000000000000000004dc6d3a20f0e99b1823cc681217209406957e445000000000000000000000000000000000000000000000000000000000000002d",
        "nonce": "0x8",
        "chainId": "0xaa36a7"
      },
      "additionalContracts": [],
      "isFixedGasLimit": false
    }
  ],
  "receipts": [
    {
      "status": "0x1",
      "cumulativeGasUsed": "0xc81b86",
      "logs": [
        {
          "address": "0x4dc6d3a20f0e99b1823cc681217209406957e445",
          "topics": [
            "0xeb722aaf67d16afec3e425ae40d374a902cdbbb44c722ce4fd485a6540d6a7e1"
          ],
          "data": "0x000000000000000000000000000000000000000000000000000000000000000000000000000000000000000000000000000000000000000000000000000000400000000000000000000000000000000000000000000000000000000000000000",
          "blockHash": "0x2e22ff96e58519a8fb28a94eb4f2527686b80c70f05d49b3e7038e33f2d20cd6",
          "blockNumber": "0x83a100",
          "blockTimestamp": "0x685c053c",
          "transactionHash": "0xad5bf27ce49ea092f7b5c839b07dce060e0a037a8d09c5b04f77001eccc2fbd7",
          "transactionIndex": "0x89",
          "logIndex": "0xd4",
          "removed": false
        }
      ],
      "logsBloom": "0x00000004000000000000000000000000800000000000001000000000000000000000000000000000000000000000000000000000000000000000000000000000000000000000000000000000000000008000000000000000000000000000000000000000000000000000000000000000000010000000000000000000040000000000000000000000000000000000000000000000000000000000000000000000000000000000000000000000000000000000000000000000000000000000000000000000000000000000000000000000000000000000000000000000000000000000000000000000000000000000000000000000000000000000000000000000",
      "type": "0x2",
      "transactionHash": "0xad5bf27ce49ea092f7b5c839b07dce060e0a037a8d09c5b04f77001eccc2fbd7",
      "transactionIndex": "0x89",
      "blockHash": "0x2e22ff96e58519a8fb28a94eb4f2527686b80c70f05d49b3e7038e33f2d20cd6",
      "blockNumber": "0x83a100",
      "gasUsed": "0x6245",
      "effectiveGasPrice": "0x167fad1d6",
      "from": "0x3a81e9bab5e931079ad42fe08962b86eebb6814b",
      "to": "0x4dc6d3a20f0e99b1823cc681217209406957e445",
      "contractAddress": null
    }
  ],
  "libraries": [],
  "pending": [],
  "returns": {},
  "timestamp": 1750861117,
  "chain": 11155111,
  "commit": null
}