{
  "transactions": [
    {
      "hash": "0xa9cf303962b31ed4233db640176d51a049f01ad648913402fc5081aed9b25aea",
      "transactionType": "CALL",
      "contractName": null,
      "contractAddress": "0x4dc6d3a20f0e99b1823cc681217209406957e445",
      "function": "setVarsDelegateCall(address,uint256)",
      "arguments": [
        "0x4Dc6d3A20F0E99B1823cC681217209406957e445",
        "45"
      ],
      "transaction": {
        "from": "0x3a81e9bab5e931079ad42fe08962b86eebb6814b",
        "to": "0x4dc6d3a20f0e99b1823cc681217209406957e445",
        "gas": "0x87bb",
        "value": "0x0",
        "input": "0x3ab6ee760000000000000000000000004dc6d3a20f0e99b1823cc681217209406957e445000000000000000000000000000000000000000000000000000000000000002d",
        "nonce": "0x5",
        "chainId": "0xaa36a7"
      },
      "additionalContracts": [],
      "isFixedGasLimit": false
    }
  ],
  "receipts": [
    {
      "status": "0x1",
      "cumulativeGasUsed": "0x10ecd54",
      "logs": [
        {
          "address": "0x4dc6d3a20f0e99b1823cc681217209406957e445",
          "topics": [
            "0xeb722aaf67d16afec3e425ae40d374a902cdbbb44c722ce4fd485a6540d6a7e1"
          ],
          "data": "0x000000000000000000000000000000000000000000000000000000000000000000000000000000000000000000000000000000000000000000000000000000400000000000000000000000000000000000000000000000000000000000000000",
          "blockHash": "0x06f38761fde6c53619ddd44d91f5dabb745339f7ee0d45a511b83fdf73ae2462",
          "blockNumber": "0x83a082",
          "blockTimestamp": "0x685bff54",
          "transactionHash": "0xa9cf303962b31ed4233db640176d51a049f01ad648913402fc5081aed9b25aea",
          "transactionIndex": "0xa1",
          "logIndex": "0xd9",
          "removed": false
        }
      ],
      "logsBloom": "0x00000004000000000000000000000000800000000000001000000000000000000000000000000000000000000000000000000000000000000000000000000000000000000000000000000000000000008000000000000000000000000000000000000000000000000000000000000000000010000000000000000000040000000000000000000000000000000000000000000000000000000000000000000000000000000000000000000000000000000000000000000000000000000000000000000000000000000000000000000000000000000000000000000000000000000000000000000000000000000000000000000000000000000000000000000000",
      "type": "0x2",
      "transactionHash": "0xa9cf303962b31ed4233db640176d51a049f01ad648913402fc5081aed9b25aea",
      "transactionIndex": "0xa1",
      "blockHash": "0x06f38761fde6c53619ddd44d91f5dabb745339f7ee0d45a511b83fdf73ae2462",
      "blockNumber": "0x83a082",
      "gasUsed": "0x6245",
      "effectiveGasPrice": "0x1342253d8",
      "from": "0x3a81e9bab5e931079ad42fe08962b86eebb6814b",
      "to": "0x4dc6d3a20f0e99b1823cc681217209406957e445",
      "contractAddress": null
    }
  ],
  "libraries": [],
  "pending": [],
  "returns": {},
  "timestamp": 1750859607,
  "chain": 11155111,
  "commit": null
}