{
  "transactions": [
    {
      "hash": "0x361384e687c77a9dfa44dd6e88d974e21cc78c7b8acb382b83df5715bbf400c8",
      "transactionType": "CALL",
      "contractName": null,
      "contractAddress": "0x4dc6d3a20f0e99b1823cc681217209406957e445",
      "function": "setVarsDelegateCall(address,uint256)",
      "arguments": [
        "0x4Dc6d3A20F0E99B1823cC681217209406957e445",
        "123"
      ],
      "transaction": {
        "from": "0x3a81e9bab5e931079ad42fe08962b86eebb6814b",
        "to": "0x4dc6d3a20f0e99b1823cc681217209406957e445",
        "gas": "0x87bb",
        "value": "0x0",
        "input": "0x3ab6ee760000000000000000000000004dc6d3a20f0e99b1823cc681217209406957e445000000000000000000000000000000000000000000000000000000000000007b",
        "nonce": "0x9",
        "chainId": "0xaa36a7"
      },
      "additionalContracts": [],
      "isFixedGasLimit": false
    }
  ],
  "receipts": [
    {
      "status": "0x1",
      "cumulativeGasUsed": "0x11698fe",
      "logs": [
        {
          "address": "0x4dc6d3a20f0e99b1823cc681217209406957e445",
          "topics": [
            "0xeb722aaf67d16afec3e425ae40d374a902cdbbb44c722ce4fd485a6540d6a7e1"
          ],
          "data": "0x000000000000000000000000000000000000000000000000000000000000000000000000000000000000000000000000000000000000000000000000000000400000000000000000000000000000000000000000000000000000000000000000",
          "blockHash": "0xfd6bb5bb516bffe533731be36b488cdf9c283340c8cdf98fedcf675416367398",
          "blockNumber": "0x83a19a",
          "blockTimestamp": "0x685c0cc8",
          "transactionHash": "0x361384e687c77a9dfa44dd6e88d974e21cc78c7b8acb382b83df5715bbf400c8",
          "transactionIndex": "0xbd",
          "logIndex": "0xf2",
          "removed": false
        }
      ],
      "logsBloom": "0x00000004000000000000000000000000800000000000001000000000000000000000000000000000000000000000000000000000000000000000000000000000000000000000000000000000000000008000000000000000000000000000000000000000000000000000000000000000000010000000000000000000040000000000000000000000000000000000000000000000000000000000000000000000000000000000000000000000000000000000000000000000000000000000000000000000000000000000000000000000000000000000000000000000000000000000000000000000000000000000000000000000000000000000000000000000",
      "type": "0x2",
      "transactionHash": "0x361384e687c77a9dfa44dd6e88d974e21cc78c7b8acb382b83df5715bbf400c8",
      "transactionIndex": "0xbd",
      "blockHash": "0xfd6bb5bb516bffe533731be36b488cdf9c283340c8cdf98fedcf675416367398",
      "blockNumber": "0x83a19a",
      "gasUsed": "0x6245",
      "effectiveGasPrice": "0x92e1fcaf",
      "from": "0x3a81e9bab5e931079ad42fe08962b86eebb6814b",
      "to": "0x4dc6d3a20f0e99b1823cc681217209406957e445",
      "contractAddress": null
    }
  ],
  "libraries": [],
  "pending": [],
  "returns": {},
  "timestamp": 1750863049,
  "chain": 11155111,
  "commit": null
}