{
  "transactions": [
    {
      "hash": "0x9a0da55d52a0731cec91bd8e4bfd5b3be8d74f04c01eced3ddc11dbaaf3c5d9d",
      "transactionType": "CALL",
      "contractName": null,
      "contractAddress": "0xdd0f1297072723b44737fd102f821bb1bbcd517f",
      "function": "setVarsDelegateCall(address,uint256)",
      "arguments": [
        "0x6dF4d93E32566Cd1A8c4db3cC19CD4956FC853F2",
        "123"
      ],
      "transaction": {
        "from": "0x3a81e9bab5e931079ad42fe08962b86eebb6814b",
        "to": "0xdd0f1297072723b44737fd102f821bb1bbcd517f",
        "gas": "0xba12",
        "value": "0x0",
        "input": "0x3ab6ee760000000000000000000000006df4d93e32566cd1a8c4db3cc19cd4956fc853f2000000000000000000000000000000000000000000000000000000000000007b",
        "nonce": "0x12",
        "chainId": "0xaa36a7"
      },
      "additionalContracts": [],
      "isFixedGasLimit": false
    }
  ],
  "receipts": [
    {
      "status": "0x1",
      "cumulativeGasUsed": "0x17410d6",
      "logs": [
        {
          "address": "0xdd0f1297072723b44737fd102f821bb1bbcd517f",
          "topics": [
            "0xeb722aaf67d16afec3e425ae40d374a902cdbbb44c722ce4fd485a6540d6a7e1"
          ],
          "data": "0x000000000000000000000000000000000000000000000000000000000000000100000000000000000000000000000000000000000000000000000000000000400000000000000000000000000000000000000000000000000000000000000000",
          "blockHash": "0x5a968882fd4dda8f6643b02de0152530bbe6ee1bf5f6d3bfa2608793c384b464",
          "blockNumber": "0x83b5db",
          "blockTimestamp": "0x685d0160",
          "transactionHash": "0x9a0da55d52a0731cec91bd8e4bfd5b3be8d74f04c01eced3ddc11dbaaf3c5d9d",
          "transactionIndex": "0x9f",
          "logIndex": "0xb7",
          "removed": false
        }
      ],
      "logsBloom": "0x00000004000000000040000000000000800000000000000000000000000000000000000000000000000000000000000000000000000000000000000000000000000000000000000000000000000000000000000000000000000000000000000000000000000000000000000000000000000010000000000000000000000000000000000000000000000000000000000400000000000000000000000000000000000000000000000000000000000000000000000000000000000000000000000000000000000008000000000000000000000000000000000000000000000000000000000000000000000000000000000000000000000000000000000000000000",
      "type": "0x2",
      "transactionHash": "0x9a0da55d52a0731cec91bd8e4bfd5b3be8d74f04c01eced3ddc11dbaaf3c5d9d",
      "transactionIndex": "0x9f",
      "blockHash": "0x5a968882fd4dda8f6643b02de0152530bbe6ee1bf5f6d3bfa2608793c384b464",
      "blockNumber": "0x83b5db",
      "gasUsed": "0x7f3b",
      "effectiveGasPrice": "0x6ffe8863d",
      "from": "0x3a81e9bab5e931079ad42fe08962b86eebb6814b",
      "to": "0xdd0f1297072723b44737fd102f821bb1bbcd517f",
      "contractAddress": null
    }
  ],
  "libraries": [],
  "pending": [],
  "returns": {},
  "timestamp": 1750925665,
  "chain": 11155111,
  "commit": null
}