{
  "transactions": [
    {
      "hash": "0x1b152ec246ba308e5dcfe0c509db171d04950ddbbc9152f92ec25b64389fc7d7",
      "transactionType": "CALL",
      "contractName": null,
      "contractAddress": "0x4dc6d3a20f0e99b1823cc681217209406957e445",
      "function": "setVarsDelegateCall(address,uint256)",
      "arguments": [
        "0x4Dc6d3A20F0E99B1823cC681217209406957e445",
        "45"
      ],
      "transaction": {
        "from": "0x3a81e9bab5e931079ad42fe08962b86eebb6814b",
        "to": "0x4dc6d3a20f0e99b1823cc681217209406957e445",
        "gas": "0x87bb",
        "value": "0x0",
        "input": "0x3ab6ee760000000000000000000000004dc6d3a20f0e99b1823cc681217209406957e445000000000000000000000000000000000000000000000000000000000000002d",
        "nonce": "0x7",
        "chainId": "0xaa36a7"
      },
      "additionalContracts": [],
      "isFixedGasLimit": false
    }
  ],
  "receipts": [
    {
      "status": "0x1",
      "cumulativeGasUsed": "0x122685c",
      "logs": [
        {
          "address": "0x4dc6d3a20f0e99b1823cc681217209406957e445",
          "topics": [
            "0xeb722aaf67d16afec3e425ae40d374a902cdbbb44c722ce4fd485a6540d6a7e1"
          ],
          "data": "0x000000000000000000000000000000000000000000000000000000000000000000000000000000000000000000000000000000000000000000000000000000400000000000000000000000000000000000000000000000000000000000000000",
          "blockHash": "0xa80e6e7cd2001e5a61382c361e037a8d017fc2ac1c5bfdd40627ea6eeb351e2b",
          "blockNumber": "0x83a0f2",
          "blockTimestamp": "0x685c0494",
          "transactionHash": "0x1b152ec246ba308e5dcfe0c509db171d04950ddbbc9152f92ec25b64389fc7d7",
          "transactionIndex": "0x77",
          "logIndex": "0xdf",
          "removed": false
        }
      ],
      "logsBloom": "0x00000004000000000000000000000000800000000000001000000000000000000000000000000000000000000000000000000000000000000000000000000000000000000000000000000000000000008000000000000000000000000000000000000000000000000000000000000000000010000000000000000000040000000000000000000000000000000000000000000000000000000000000000000000000000000000000000000000000000000000000000000000000000000000000000000000000000000000000000000000000000000000000000000000000000000000000000000000000000000000000000000000000000000000000000000000",
      "type": "0x2",
      "transactionHash": "0x1b152ec246ba308e5dcfe0c509db171d04950ddbbc9152f92ec25b64389fc7d7",
      "transactionIndex": "0x77",
      "blockHash": "0xa80e6e7cd2001e5a61382c361e037a8d017fc2ac1c5bfdd40627ea6eeb351e2b",
      "blockNumber": "0x83a0f2",
      "gasUsed": "0x6245",
      "effectiveGasPrice": "0x1782dac0b",
      "from": "0x3a81e9bab5e931079ad42fe08962b86eebb6814b",
      "to": "0x4dc6d3a20f0e99b1823cc681217209406957e445",
      "contractAddress": null
    }
  ],
  "libraries": [],
  "pending": [],
  "returns": {},
  "timestamp": 1750860949,
  "chain": 11155111,
  "commit": null
}