{
  "transactions": [
    {
      "hash": "0xf66b5c535dfec049d77336e50643a76dda5e0551add1f766f5f1603a75393d2e",
      "transactionType": "CALL",
      "contractName": null,
      "contractAddress": "0x4dc6d3a20f0e99b1823cc681217209406957e445",
      "function": "setVarsDelegateCall(address,uint256)",
      "arguments": [
        "0x4Dc6d3A20F0E99B1823cC681217209406957e445",
        "123"
      ],
      "transaction": {
        "from": "0x3a81e9bab5e931079ad42fe08962b86eebb6814b",
        "to": "0x4dc6d3a20f0e99b1823cc681217209406957e445",
        "gas": "0x87bb",
        "value": "0x0",
        "input": "0x3ab6ee760000000000000000000000004dc6d3a20f0e99b1823cc681217209406957e445000000000000000000000000000000000000000000000000000000000000007b",
        "nonce": "0xc",
        "chainId": "0xaa36a7"
      },
      "additionalContracts": [],
      "isFixedGasLimit": false
    }
  ],
  "receipts": [
    {
      "status": "0x1",
      "cumulativeGasUsed": "0x1025830",
      "logs": [
        {
          "address": "0x4dc6d3a20f0e99b1823cc681217209406957e445",
          "topics": [
            "0xeb722aaf67d16afec3e425ae40d374a902cdbbb44c722ce4fd485a6540d6a7e1"
          ],
          "data": "0x000000000000000000000000000000000000000000000000000000000000000000000000000000000000000000000000000000000000000000000000000000400000000000000000000000000000000000000000000000000000000000000000",
          "blockHash": "0x8c7016981d5080be19e363cb8b0de22e9f6097a3f3246e185fb3cd54eecb176b",
          "blockNumber": "0x83a36b",
          "blockTimestamp": "0x685c22b8",
          "transactionHash": "0xf66b5c535dfec049d77336e50643a76dda5e0551add1f766f5f1603a75393d2e",
          "transactionIndex": "0x7e",
          "logIndex": "0xa6",
          "removed": false
        }
      ],
      "logsBloom": "0x00000004000000000000000000000000800000000000001000000000000000000000000000000000000000000000000000000000000000000000000000000000000000000000000000000000000000008000000000000000000000000000000000000000000000000000000000000000000010000000000000000000040000000000000000000000000000000000000000000000000000000000000000000000000000000000000000000000000000000000000000000000000000000000000000000000000000000000000000000000000000000000000000000000000000000000000000000000000000000000000000000000000000000000000000000000",
      "type": "0x2",
      "transactionHash": "0xf66b5c535dfec049d77336e50643a76dda5e0551add1f766f5f1603a75393d2e",
      "transactionIndex": "0x7e",
      "blockHash": "0x8c7016981d5080be19e363cb8b0de22e9f6097a3f3246e185fb3cd54eecb176b",
      "blockNumber": "0x83a36b",
      "gasUsed": "0x6245",
      "effectiveGasPrice": "0x3b83df05",
      "from": "0x3a81e9bab5e931079ad42fe08962b86eebb6814b",
      "to": "0x4dc6d3a20f0e99b1823cc681217209406957e445",
      "contractAddress": null
    }
  ],
  "libraries": [],
  "pending": [],
  "returns": {},
  "timestamp": 1750868665,
  "chain": 11155111,
  "commit": null
}