{
  "transactions": [
    {
      "hash": "0xf10b529523ace3fd421327b6a060e715ca86add13c0ec4f867bc4f18b7cf1bea",
      "transactionType": "CALL",
      "contractName": null,
      "contractAddress": "0x4dc6d3a20f0e99b1823cc681217209406957e445",
      "function": "setVarsDelegateCall(address,uint256)",
      "arguments": [
        "0x4Dc6d3A20F0E99B1823cC681217209406957e445",
        "123"
      ],
      "transaction": {
        "from": "0x3a81e9bab5e931079ad42fe08962b86eebb6814b",
        "to": "0x4dc6d3a20f0e99b1823cc681217209406957e445",
        "gas": "0x87bb",
        "value": "0x0",
        "input": "0x3ab6ee760000000000000000000000004dc6d3a20f0e99b1823cc681217209406957e445000000000000000000000000000000000000000000000000000000000000007b",
        "nonce": "0xb",
        "chainId": "0xaa36a7"
      },
      "additionalContracts": [],
      "isFixedGasLimit": false
    }
  ],
  "receipts": [
    {
      "status": "0x1",
      "cumulativeGasUsed": "0x241697f",
      "logs": [
        {
          "address": "0x4dc6d3a20f0e99b1823cc681217209406957e445",
          "topics": [
            "0xeb722aaf67d16afec3e425ae40d374a902cdbbb44c722ce4fd485a6540d6a7e1"
          ],
          "data": "0x000000000000000000000000000000000000000000000000000000000000000000000000000000000000000000000000000000000000000000000000000000400000000000000000000000000000000000000000000000000000000000000000",
          "blockHash": "0xbd7d3a0fe61f7aa4d6384ac50bb27eaae997dae5c79e09c086d355682cbaa011",
          "blockNumber": "0x83a2e2",
          "blockTimestamp": "0x685c1c4c",
          "transactionHash": "0xf10b529523ace3fd421327b6a060e715ca86add13c0ec4f867bc4f18b7cf1bea",
          "transactionIndex": "0x7b",
          "logIndex": "0xe0",
          "removed": false
        }
      ],
      "logsBloom": "0x00000004000000000000000000000000800000000000001000000000000000000000000000000000000000000000000000000000000000000000000000000000000000000000000000000000000000008000000000000000000000000000000000000000000000000000000000000000000010000000000000000000040000000000000000000000000000000000000000000000000000000000000000000000000000000000000000000000000000000000000000000000000000000000000000000000000000000000000000000000000000000000000000000000000000000000000000000000000000000000000000000000000000000000000000000000",
      "type": "0x2",
      "transactionHash": "0xf10b529523ace3fd421327b6a060e715ca86add13c0ec4f867bc4f18b7cf1bea",
      "transactionIndex": "0x7b",
      "blockHash": "0xbd7d3a0fe61f7aa4d6384ac50bb27eaae997dae5c79e09c086d355682cbaa011",
      "blockNumber": "0x83a2e2",
      "gasUsed": "0x6245",
      "effectiveGasPrice": "0x12b77a9cb",
      "from": "0x3a81e9bab5e931079ad42fe08962b86eebb6814b",
      "to": "0x4dc6d3a20f0e99b1823cc681217209406957e445",
      "contractAddress": null
    }
  ],
  "libraries": [],
  "pending": [],
  "returns": {},
  "timestamp": 1750867021,
  "chain": 11155111,
  "commit": null
}